:020000020000FC
:0200000045C0F9
:0800040080D018958FD01895EB
:040078002DD01895DA
:10008C0000E10EBF0FEF0DBF0FEF07BB00E008BB89
:10009C0000E001BB03E802BB00E900939A000EE00C
:1000AC0000939D0001E00093980000EA00939900F2
:1000BC000AE000936A0000E00ABF03E009BF7894ED
:1000CC0053E000E608BBFFCF1F930F930FB70F93BE
:1000DC0010919C0007FF05C0153D51F40E94F100E2
:1000EC0007C0133329F400919B0007FFFCCF37D0D6
:1000FC000F910FBF0F911F9108950F932F930FB76F
:10010C000F9300E008BB1BD000E208BB18D000E640
:10011C0008BB0F910FBF2F910F9108950F932F9341
:10012C000FB70F9300E008BB0AD000E408BB07D060
:10013C0000E608BB0F910FBF2F910F9108952F93DD
:10014C003F934F9324E640EE3DEE3A95F1F74A95F6
:10015C00D9F72A95C1F74F913F912F9108950F939D
:10016C000FB70F9300919C00000F003619F400E6B6
:10017C0008BB19C0003019F400E008BB14C00032F1
:10018C0019F400E208BB0FC0003419F400E408BBFA
:10019C000AC0003919F400E908BB05C0003F19F486
:1001AC0006D008BB00C00F910FBF0F9108950F939D
:1001BC000FB70F9308E800939A0005ED00939C008D
:1001CC0000919B0005FFFCCF00E900939A000F9172
:1001DC000FBF0F9108950F930FB70F9300E908BB52
:1001EC0045E0ADDF4A95E9F75A9509F406D000E6EB
:1001FC0008BB0F910FBF0F9108950F930FB70F937B
:10020C0000B307FDFDCF53E00F910FBF0F91089581
:00000001FF
