:020000020000FC
:0200000045C0F9
:0800040071D0189580D0189509
:0400480042D01895F5
:10008C0000E10EBF0FEF0DBF0FEF07BB00E008BB89
:10009C0000E001BB03E002BB09E00093900000E626
:1000AC0009B908E90AB90EE0009395000AE000933B
:1000BC006A0000E00ABF03E009BF789400E608BBC1
:1000CC00FDCF0F930FB70F930CB1033319F45F9B54
:1000DC00FECF36D00F910FBF0F9108950F931F9342
:1000EC000FB70F9300E008BB14E61AD000E208BB70
:1000FC0014E616D00F910FBF1F910F9108950F9317
:10010C001F930FB70F9300E008BB14E609D000E46F
:10011C0008BB14E605D00F910FBF1F910F910895E6
:10012C001F932F933F9314E630EE2DEE2A95F1F7A3
:10013C003A95D9F71A95C1F73F912F911F910895D0
:10014C000F930FB70F930CB1000F003619F400E6A4
:10015C0008BB14C0003019F400E008BB0FC000321B
:10016C0019F400E208BB0AC0003419F400E408BB1F
:10017C0005C0003919F400E908BB00C00F910FBF8E
:04018C000F91089532
:00000001FF
