:020000020000FC
:0200000045C0F9
:10008C0000E10EBF0FEF0DBF0CE001BB03EF02BB95
:10009C0008E100939A000EE000939D0009E00093A4
:1000AC00980000E60093990000919B00003209F043
:1000BC00FBCF00B3037F0030B9F313E310939C0024
:1000CC0010919B00103209F0FBCF01D0EDCF013025
:1000DC0021F410EB10939C0018C0023021F410E8AE
:1000EC0010939C0012C0003121F410E910939C0075
:1000FC000CC0003221F410EA10939C0006C00034AE
:0C010C0021F418EC10939C0000C0089532
:00000001FF
