:020000020000FC
:0200000045C0F9
:0400040062D0189519
:040078002CD01895DB
:10008C0000E10EBF0FEF0DBF01E007BB00E008BBA6
:10009C0000E001BB01E002BB08E900939A000EE00E
:1000AC0000939D0001E00093980000EA00939900F2
:1000BC0002E000936A0001E009BF7894FFCF03E9E6
:1000CC0000939C00089500919C0035E001E008BB72
:1000DC0006D000E008BB03D03A95C1F708951F93F2
:1000EC002F933F931EE130EE2DEE2A95F1F73A95C2
:0E00FC00D9F71A95C1F73F912F911F910895E2
:00000001FF
