:020000020000FC
:0200000045C0F9
:080004007AD0189589D01895F7
:040078002CD01895DB
:10008C0000E10EBF0FEF0DBF0FEF07BB00E008BB89
:10009C0000E001BB03E002BB08E900939A000EE00C
:1000AC0000939D0001E00093980000EA00939900F2
:1000BC000AE000936A0000E00ABF03E009BF7894ED
:1000CC0000E608BBFFCF1F930F930FB70F93109150
:1000DC009C00133339F400919B000078003809F030
:1000EC00FACF37D00F910FBF0F911F9108950F9337
:1000FC002F930FB70F9300E008BB24E61AD000E251
:10010C0008BB24E616D00F910FBF2F910F910895C5
:10011C000F932F930FB70F9300E008BB24E609D081
:10012C0000E408BB24E605D00F910FBF2F910F916F
:10013C0008952F933F934F9324E640EE3DEE3A956E
:10014C00F1F74A95D9F72A95C1F74F913F912F9125
:10015C0008950F930FB70F9300919C00000F00367A
:10016C0019F400E608BB14C0003019F400E008BB19
:10017C000FC0003219F400E208BB0AC0003419F4B5
:10018C0000E408BB05C0003919F400E908BB00C045
:08019C000F910FBF0F910895B0
:00000001FF
